{
  "_format": "hh-sol-artifact-1",
  "contractName": "DateHandler",
  "sourceName": "contracts/DateHandler.sol",
  "abi": [
    {
      "inputs": [],
      "name": "claimDate",
      "outputs": [],
      "stateMutability": "nonpayable",
      "type": "function"
    },
    {
      "inputs": [
        {
          "internalType": "address",
          "name": "_of",
          "type": "address"
        }
      ],
      "name": "getDatesForAddress",
      "outputs": [
        {
          "internalType": "uint256[]",
          "name": "",
          "type": "uint256[]"
        }
      ],
      "stateMutability": "view",
      "type": "function"
    },
    {
      "inputs": [],
      "name": "getDatesOwned",
      "outputs": [
        {
          "internalType": "uint256[]",
          "name": "",
          "type": "uint256[]"
        }
      ],
      "stateMutability": "view",
      "type": "function"
    },
    {
      "inputs": [
        {
          "internalType": "address",
          "name": "",
          "type": "address"
        },
        {
          "internalType": "uint256",
          "name": "",
          "type": "uint256"
        }
      ],
      "name": "ownerAddrToDay",
      "outputs": [
        {
          "internalType": "uint256",
          "name": "",
          "type": "uint256"
        }
      ],
      "stateMutability": "view",
      "type": "function"
    }
  ],
  "bytecode": "0x60806040524260015534801561001457600080fd5b50610643806100246000396000f3fe608060405234801561001057600080fd5b506004361061004c5760003560e01c80630db4bad014610051578063123bf4d11461005b57806328da9fda1461008b578063d89993c9146100bb575b600080fd5b6100596100d9565b005b61007560048036038101906100709190610393565b61019f565b60405161008291906103e2565b60405180910390f35b6100a560048036038101906100a091906103fd565b6101d0565b6040516100b291906104e8565b60405180910390f35b6100c3610266565b6040516100d091906104e8565b60405180910390f35b600062015180426100ea9190610539565b90506001548103610130576040517f08c379a0000000000000000000000000000000000000000000000000000000008152600401610127906105ed565b60405180910390fd5b806001819055506000803373ffffffffffffffffffffffffffffffffffffffff1673ffffffffffffffffffffffffffffffffffffffff16815260200190815260200160002081908060018154018082558091505060019003906000526020600020016000909190919091505550565b600060205281600052604060002081815481106101bb57600080fd5b90600052602060002001600091509150505481565b60606000808373ffffffffffffffffffffffffffffffffffffffff1673ffffffffffffffffffffffffffffffffffffffff16815260200190815260200160002080548060200260200160405190810160405280929190818152602001828054801561025a57602002820191906000526020600020905b815481526020019060010190808311610246575b50505050509050919050565b60606000803373ffffffffffffffffffffffffffffffffffffffff1673ffffffffffffffffffffffffffffffffffffffff1681526020019081526020016000208054806020026020016040519081016040528092919081815260200182805480156102f057602002820191906000526020600020905b8154815260200190600101908083116102dc575b5050505050905090565b600080fd5b600073ffffffffffffffffffffffffffffffffffffffff82169050919050565b600061032a826102ff565b9050919050565b61033a8161031f565b811461034557600080fd5b50565b60008135905061035781610331565b92915050565b6000819050919050565b6103708161035d565b811461037b57600080fd5b50565b60008135905061038d81610367565b92915050565b600080604083850312156103aa576103a96102fa565b5b60006103b885828601610348565b92505060206103c98582860161037e565b9150509250929050565b6103dc8161035d565b82525050565b60006020820190506103f760008301846103d3565b92915050565b600060208284031215610413576104126102fa565b5b600061042184828501610348565b91505092915050565b600081519050919050565b600082825260208201905092915050565b6000819050602082019050919050565b61045f8161035d565b82525050565b60006104718383610456565b60208301905092915050565b6000602082019050919050565b60006104958261042a565b61049f8185610435565b93506104aa83610446565b8060005b838110156104db5781516104c28882610465565b97506104cd8361047d565b9250506001810190506104ae565b5085935050505092915050565b60006020820190508181036000830152610502818461048a565b905092915050565b7f4e487b7100000000000000000000000000000000000000000000000000000000600052601260045260246000fd5b60006105448261035d565b915061054f8361035d565b92508261055f5761055e61050a565b5b828204905092915050565b600082825260208201905092915050565b7f446174652068617320616c7265616479206265656e20636c61696d656420746f60008201527f6461790000000000000000000000000000000000000000000000000000000000602082015250565b60006105d760238361056a565b91506105e28261057b565b604082019050919050565b60006020820190508181036000830152610606816105ca565b905091905056fea2646970667358221220ffe4da3ec09332ba8d0a00864260c0dac191df6d2d0da672dba8e84c4fcf343b64736f6c63430008180033",
  "linkReferences": {},
  "deployedLinkReferences": {}
}