{
  "_format": "hh-sol-artifact-1",
  "contractName": "Auction",
  "sourceName": "contracts/Auction.sol",
  "abi": [
    {
      "inputs": [
        {
          "internalType": "uint256",
          "name": "_date",
          "type": "uint256"
        }
      ],
      "name": "buyDate",
      "outputs": [],
      "stateMutability": "payable",
      "type": "function"
    },
    {
      "inputs": [],
      "name": "claimDate",
      "outputs": [],
      "stateMutability": "nonpayable",
      "type": "function"
    },
    {
      "inputs": [
        {
          "internalType": "uint256",
          "name": "",
          "type": "uint256"
        }
      ],
      "name": "dateToOwner",
      "outputs": [
        {
          "internalType": "address",
          "name": "",
          "type": "address"
        }
      ],
      "stateMutability": "view",
      "type": "function"
    },
    {
      "inputs": [
        {
          "internalType": "uint256",
          "name": "",
          "type": "uint256"
        }
      ],
      "name": "dateToPrice",
      "outputs": [
        {
          "internalType": "uint256",
          "name": "",
          "type": "uint256"
        }
      ],
      "stateMutability": "view",
      "type": "function"
    },
    {
      "inputs": [
        {
          "internalType": "address",
          "name": "_of",
          "type": "address"
        }
      ],
      "name": "getDatesForAddress",
      "outputs": [
        {
          "internalType": "uint256[]",
          "name": "",
          "type": "uint256[]"
        }
      ],
      "stateMutability": "view",
      "type": "function"
    },
    {
      "inputs": [],
      "name": "getDatesOwned",
      "outputs": [
        {
          "internalType": "uint256[]",
          "name": "",
          "type": "uint256[]"
        }
      ],
      "stateMutability": "view",
      "type": "function"
    },
    {
      "inputs": [
        {
          "internalType": "address",
          "name": "",
          "type": "address"
        },
        {
          "internalType": "uint256",
          "name": "",
          "type": "uint256"
        }
      ],
      "name": "ownerAddrToDay",
      "outputs": [
        {
          "internalType": "uint256",
          "name": "",
          "type": "uint256"
        }
      ],
      "stateMutability": "view",
      "type": "function"
    },
    {
      "inputs": [
        {
          "internalType": "uint256",
          "name": "_date",
          "type": "uint256"
        },
        {
          "internalType": "uint256",
          "name": "_price",
          "type": "uint256"
        }
      ],
      "name": "sellDate",
      "outputs": [],
      "stateMutability": "nonpayable",
      "type": "function"
    },
    {
      "inputs": [],
      "name": "test",
      "outputs": [
        {
          "internalType": "string",
          "name": "",
          "type": "string"
        }
      ],
      "stateMutability": "pure",
      "type": "function"
    }
  ],
  "bytecode": "0x60806040524260015534801561001457600080fd5b506111ae806100246000396000f3fe6080604052600436106100865760003560e01c80634ea10dc3116100595780634ea10dc31461015957806374d87c3514610196578063ad2321d2146101bf578063d89993c9146101db578063f8a8fd6d1461020657610086565b80630db4bad01461008b578063123bf4d1146100a25780632803e92a146100df57806328da9fda1461011c575b600080fd5b34801561009757600080fd5b506100a0610231565b005b3480156100ae57600080fd5b506100c960048036038101906100c49190610abd565b6102f7565b6040516100d69190610b0c565b60405180910390f35b3480156100eb57600080fd5b5061010660048036038101906101019190610b27565b610328565b6040516101139190610b0c565b60405180910390f35b34801561012857600080fd5b50610143600480360381019061013e9190610b54565b610340565b6040516101509190610c3f565b60405180910390f35b34801561016557600080fd5b50610180600480360381019061017b9190610b27565b6103d6565b60405161018d9190610c70565b60405180910390f35b3480156101a257600080fd5b506101bd60048036038101906101b89190610c8b565b610409565b005b6101d960048036038101906101d49190610b27565b6105c0565b005b3480156101e757600080fd5b506101f0610953565b6040516101fd9190610c3f565b60405180910390f35b34801561021257600080fd5b5061021b6109e7565b6040516102289190610d5b565b60405180910390f35b600062015180426102429190610ddb565b90506001548103610288576040517f08c379a000000000000000000000000000000000000000000000000000000000815260040161027f90610e7e565b60405180910390fd5b806001819055506000803373ffffffffffffffffffffffffffffffffffffffff1673ffffffffffffffffffffffffffffffffffffffff16815260200190815260200160002081908060018154018082558091505060019003906000526020600020016000909190919091505550565b6000602052816000526040600020818154811061031357600080fd5b90600052602060002001600091509150505481565b60026020528060005260406000206000915090505481565b60606000808373ffffffffffffffffffffffffffffffffffffffff1673ffffffffffffffffffffffffffffffffffffffff1681526020019081526020016000208054806020026020016040519081016040528092919081815260200182805480156103ca57602002820191906000526020600020905b8154815260200190600101908083116103b6575b50505050509050919050565b60036020528060005260406000206000915054906101000a900473ffffffffffffffffffffffffffffffffffffffff1681565b6000811161044c576040517f08c379a000000000000000000000000000000000000000000000000000000000815260040161044390610f10565b60405180910390fd5b6000805b6000803373ffffffffffffffffffffffffffffffffffffffff1673ffffffffffffffffffffffffffffffffffffffff1681526020019081526020016000208054905081101561051057836000803373ffffffffffffffffffffffffffffffffffffffff1673ffffffffffffffffffffffffffffffffffffffff16815260200190815260200160002082815481106104ea576104e9610f30565b5b9060005260206000200154036105035760019150610510565b8080600101915050610450565b5080610551576040517f08c379a000000000000000000000000000000000000000000000000000000000815260040161054890610fd1565b60405180910390fd5b816002600085815260200190815260200160002081905550336003600085815260200190815260200160002060006101000a81548173ffffffffffffffffffffffffffffffffffffffff021916908373ffffffffffffffffffffffffffffffffffffffff160217905550505050565b6000600260008381526020019081526020016000205403610616576040517f08c379a000000000000000000000000000000000000000000000000000000000815260040161060d90611063565b60405180910390fd5b6002600082815260200190815260200160002054341161066b576040517f08c379a0000000000000000000000000000000000000000000000000000000008152600401610662906110f5565b60405180910390fd5b60006003600083815260200190815260200160002060009054906101000a900473ffffffffffffffffffffffffffffffffffffffff1690508073ffffffffffffffffffffffffffffffffffffffff166108fc349081150290604051600060405180830381858888f193505050501580156106e9573d6000803e3d6000fd5b5060008060008373ffffffffffffffffffffffffffffffffffffffff1673ffffffffffffffffffffffffffffffffffffffff16815260200190815260200160002080549050905060005b818110156108e857836000808573ffffffffffffffffffffffffffffffffffffffff1673ffffffffffffffffffffffffffffffffffffffff168152602001908152602001600020828154811061078c5761078b610f30565b5b9060005260206000200154036108db576001826107a99190611115565b811015610876576000808473ffffffffffffffffffffffffffffffffffffffff1673ffffffffffffffffffffffffffffffffffffffff1681526020019081526020016000206001836107fb9190611115565b8154811061080c5761080b610f30565b5b90600052602060002001546000808573ffffffffffffffffffffffffffffffffffffffff1673ffffffffffffffffffffffffffffffffffffffff168152602001908152602001600020828154811061086757610866610f30565b5b90600052602060002001819055505b6000808473ffffffffffffffffffffffffffffffffffffffff1673ffffffffffffffffffffffffffffffffffffffff1681526020019081526020016000208054806108c4576108c3611149565b5b600190038181906000526020600020016000905590555b8080600101915050610733565b506000803373ffffffffffffffffffffffffffffffffffffffff1673ffffffffffffffffffffffffffffffffffffffff168152602001908152602001600020839080600181540180825580915050600190039060005260206000200160009091909190915055505050565b60606000803373ffffffffffffffffffffffffffffffffffffffff1673ffffffffffffffffffffffffffffffffffffffff1681526020019081526020016000208054806020026020016040519081016040528092919081815260200182805480156109dd57602002820191906000526020600020905b8154815260200190600101908083116109c9575b5050505050905090565b60606040518060400160405280600581526020017f68656c6c6f000000000000000000000000000000000000000000000000000000815250905090565b600080fd5b600073ffffffffffffffffffffffffffffffffffffffff82169050919050565b6000610a5482610a29565b9050919050565b610a6481610a49565b8114610a6f57600080fd5b50565b600081359050610a8181610a5b565b92915050565b6000819050919050565b610a9a81610a87565b8114610aa557600080fd5b50565b600081359050610ab781610a91565b92915050565b60008060408385031215610ad457610ad3610a24565b5b6000610ae285828601610a72565b9250506020610af385828601610aa8565b9150509250929050565b610b0681610a87565b82525050565b6000602082019050610b216000830184610afd565b92915050565b600060208284031215610b3d57610b3c610a24565b5b6000610b4b84828501610aa8565b91505092915050565b600060208284031215610b6a57610b69610a24565b5b6000610b7884828501610a72565b91505092915050565b600081519050919050565b600082825260208201905092915050565b6000819050602082019050919050565b610bb681610a87565b82525050565b6000610bc88383610bad565b60208301905092915050565b6000602082019050919050565b6000610bec82610b81565b610bf68185610b8c565b9350610c0183610b9d565b8060005b83811015610c32578151610c198882610bbc565b9750610c2483610bd4565b925050600181019050610c05565b5085935050505092915050565b60006020820190508181036000830152610c598184610be1565b905092915050565b610c6a81610a49565b82525050565b6000602082019050610c856000830184610c61565b92915050565b60008060408385031215610ca257610ca1610a24565b5b6000610cb085828601610aa8565b9250506020610cc185828601610aa8565b9150509250929050565b600081519050919050565b600082825260208201905092915050565b60005b83811015610d05578082015181840152602081019050610cea565b60008484015250505050565b6000601f19601f8301169050919050565b6000610d2d82610ccb565b610d378185610cd6565b9350610d47818560208601610ce7565b610d5081610d11565b840191505092915050565b60006020820190508181036000830152610d758184610d22565b905092915050565b7f4e487b7100000000000000000000000000000000000000000000000000000000600052601260045260246000fd5b7f4e487b7100000000000000000000000000000000000000000000000000000000600052601160045260246000fd5b6000610de682610a87565b9150610df183610a87565b925082610e0157610e00610d7d565b5b828204905092915050565b7f446174652068617320616c7265616479206265656e20636c61696d656420746f60008201527f6461790000000000000000000000000000000000000000000000000000000000602082015250565b6000610e68602383610cd6565b9150610e7382610e0c565b604082019050919050565b60006020820190508181036000830152610e9781610e5b565b9050919050565b7f5072696365206e6565647320746f2062652073657420746f206d6f726520746860008201527f616e20302e000000000000000000000000000000000000000000000000000000602082015250565b6000610efa602583610cd6565b9150610f0582610e9e565b604082019050919050565b60006020820190508181036000830152610f2981610eed565b9050919050565b7f4e487b7100000000000000000000000000000000000000000000000000000000600052603260045260246000fd5b7f4f6e6c79207468652073656e6465722063616e2073656c6c207468697320646160008201527f74652e0000000000000000000000000000000000000000000000000000000000602082015250565b6000610fbb602383610cd6565b9150610fc682610f5f565b604082019050919050565b60006020820190508181036000830152610fea81610fae565b9050919050565b7f43616e206f6e6c7920626964206f6e20616e20617661696c61626c652064617460008201527f652e000000000000000000000000000000000000000000000000000000000000602082015250565b600061104d602283610cd6565b915061105882610ff1565b604082019050919050565b6000602082019050818103600083015261107c81611040565b9050919050565b7f496e737566666963656e742066756e64732073656e7420746f2062757920646160008201527f74652e0000000000000000000000000000000000000000000000000000000000602082015250565b60006110df602383610cd6565b91506110ea82611083565b604082019050919050565b6000602082019050818103600083015261110e816110d2565b9050919050565b600061112082610a87565b915061112b83610a87565b925082820390508181111561114357611142610dac565b5b92915050565b7f4e487b7100000000000000000000000000000000000000000000000000000000600052603160045260246000fdfea26469706673582212208a49d9ad3c3ec0e1d42a59a1be4560a81e3d36ebb54628535250ca4638e6c8fc64736f6c63430008180033",
  "linkReferences": {},
  "deployedLinkReferences": {}
}